{
  "_format": "hh-sol-artifact-1",
  "contractName": "WalletReputations",
  "sourceName": "contracts/WalletReputations.sol",
  "abi": [
    {
      "anonymous": false,
      "inputs": [
        {
          "indexed": false,
          "internalType": "address",
          "name": "sender",
          "type": "address"
        },
        {
          "indexed": false,
          "internalType": "address",
          "name": "receiver",
          "type": "address"
        },
        {
          "indexed": false,
          "internalType": "uint256",
          "name": "timestamp",
          "type": "uint256"
        },
        {
          "indexed": false,
          "internalType": "uint256",
          "name": "amount",
          "type": "uint256"
        },
        {
          "indexed": false,
          "internalType": "uint256",
          "name": "whoFiled",
          "type": "uint256"
        },
        {
          "indexed": false,
          "internalType": "bool",
          "name": "disputed",
          "type": "bool"
        },
        {
          "indexed": false,
          "internalType": "string",
          "name": "txnId",
          "type": "string"
        },
        {
          "indexed": false,
          "internalType": "string",
          "name": "messages",
          "type": "string"
        },
        {
          "indexed": false,
          "internalType": "string",
          "name": "tokenName",
          "type": "string"
        }
      ],
      "name": "NewReputationReport",
      "type": "event"
    },
    {
      "inputs": [
        {
          "internalType": "address",
          "name": "_sender",
          "type": "address"
        },
        {
          "internalType": "address",
          "name": "_receiver",
          "type": "address"
        },
        {
          "internalType": "uint256",
          "name": "_timestamp",
          "type": "uint256"
        },
        {
          "internalType": "uint256",
          "name": "_amount",
          "type": "uint256"
        },
        {
          "internalType": "uint256",
          "name": "_whoFiled",
          "type": "uint256"
        },
        {
          "internalType": "bool",
          "name": "_disputed",
          "type": "bool"
        },
        {
          "internalType": "string",
          "name": "_txnId",
          "type": "string"
        },
        {
          "internalType": "string",
          "name": "_usersMessages",
          "type": "string"
        },
        {
          "internalType": "string",
          "name": "_tokenName",
          "type": "string"
        }
      ],
      "name": "createReputationReport",
      "outputs": [],
      "stateMutability": "payable",
      "type": "function"
    },
    {
      "inputs": [],
      "name": "getAllReputationReports",
      "outputs": [
        {
          "components": [
            {
              "internalType": "address",
              "name": "sender",
              "type": "address"
            },
            {
              "internalType": "address",
              "name": "receiver",
              "type": "address"
            },
            {
              "internalType": "uint256",
              "name": "timestamp",
              "type": "uint256"
            },
            {
              "internalType": "uint256",
              "name": "amount",
              "type": "uint256"
            },
            {
              "internalType": "uint256",
              "name": "whoFiled",
              "type": "uint256"
            },
            {
              "internalType": "bool",
              "name": "disputed",
              "type": "bool"
            },
            {
              "internalType": "string",
              "name": "txnId",
              "type": "string"
            },
            {
              "internalType": "string",
              "name": "usersMessages",
              "type": "string"
            },
            {
              "internalType": "string",
              "name": "tokenName",
              "type": "string"
            }
          ],
          "internalType": "struct WalletReputations.ReputationReportStruct[]",
          "name": "",
          "type": "tuple[]"
        }
      ],
      "stateMutability": "view",
      "type": "function"
    },
    {
      "inputs": [],
      "name": "getReputationReportsCount",
      "outputs": [
        {
          "internalType": "uint256",
          "name": "",
          "type": "uint256"
        }
      ],
      "stateMutability": "view",
      "type": "function"
    },
    {
      "inputs": [],
      "name": "reputationReportCount",
      "outputs": [
        {
          "internalType": "uint256",
          "name": "",
          "type": "uint256"
        }
      ],
      "stateMutability": "view",
      "type": "function"
    },
    {
      "inputs": [
        {
          "internalType": "uint256",
          "name": "",
          "type": "uint256"
        }
      ],
      "name": "reputationReports",
      "outputs": [
        {
          "internalType": "address",
          "name": "sender",
          "type": "address"
        },
        {
          "internalType": "address",
          "name": "receiver",
          "type": "address"
        },
        {
          "internalType": "uint256",
          "name": "timestamp",
          "type": "uint256"
        },
        {
          "internalType": "uint256",
          "name": "amount",
          "type": "uint256"
        },
        {
          "internalType": "uint256",
          "name": "whoFiled",
          "type": "uint256"
        },
        {
          "internalType": "bool",
          "name": "disputed",
          "type": "bool"
        },
        {
          "internalType": "string",
          "name": "txnId",
          "type": "string"
        },
        {
          "internalType": "string",
          "name": "usersMessages",
          "type": "string"
        },
        {
          "internalType": "string",
          "name": "tokenName",
          "type": "string"
        }
      ],
      "stateMutability": "view",
      "type": "function"
    },
    {
      "inputs": [
        {
          "internalType": "string",
          "name": "",
          "type": "string"
        }
      ],
      "name": "transactionIdToIndex",
      "outputs": [
        {
          "internalType": "uint256",
          "name": "",
          "type": "uint256"
        }
      ],
      "stateMutability": "view",
      "type": "function"
    },
    {
      "inputs": [
        {
          "internalType": "string",
          "name": "_txnId",
          "type": "string"
        },
        {
          "internalType": "bool",
          "name": "_disputed",
          "type": "bool"
        },
        {
          "internalType": "string",
          "name": "_messages",
          "type": "string"
        }
      ],
      "name": "updateReputationReport",
      "outputs": [
        {
          "internalType": "uint256",
          "name": "_returnCode",
          "type": "uint256"
        }
      ],
      "stateMutability": "payable",
      "type": "function"
    }
  ],
  "bytecode": "0x608060405234801561001057600080fd5b50611733806100206000396000f3fe6080604052600436106100705760003560e01c80635a6cc7621161004e5780635a6cc7621461011557806375777b431461013157806376a6c64f1461015c578063820a77b91461018757610070565b80632c5bdfaf1461007557806341d0a278146100a557806345884db6146100ea575b600080fd5b61008f600480360381019061008a919061103f565b6101c4565b60405161009c919061141b565b60405180910390f35b3480156100b157600080fd5b506100cc60048036038101906100c791906110be565b6105a0565b6040516100e199989796959493929190611357565b60405180910390f35b3480156100f657600080fd5b506100ff6107e3565b60405161010c91906113f9565b60405180910390f35b61012f600480360381019061012a9190610ef0565b610ade565b005b34801561013d57600080fd5b50610146610d2d565b604051610153919061141b565b60405180910390f35b34801561016857600080fd5b50610171610d33565b60405161017e919061141b565b60405180910390f35b34801561019357600080fd5b506101ae60048036038101906101a99190610ffe565b610d3c565b6040516101bb919061141b565b60405180910390f35b60008060006002866040516101d99190611340565b9081526020016040518091039020549050600060018281548110610226577f4e487b7100000000000000000000000000000000000000000000000000000000600052603260045260246000fd5b9060005260206000209060090201604051806101200160405290816000820160009054906101000a900473ffffffffffffffffffffffffffffffffffffffff1673ffffffffffffffffffffffffffffffffffffffff1673ffffffffffffffffffffffffffffffffffffffff1681526020016001820160009054906101000a900473ffffffffffffffffffffffffffffffffffffffff1673ffffffffffffffffffffffffffffffffffffffff1673ffffffffffffffffffffffffffffffffffffffff1681526020016002820154815260200160038201548152602001600482015481526020016005820160009054906101000a900460ff16151515158152602001600682018054610335906115e8565b80601f0160208091040260200160405190810160405280929190818152602001828054610361906115e8565b80156103ae5780601f10610383576101008083540402835291602001916103ae565b820191906000526020600020905b81548152906001019060200180831161039157829003601f168201915b505050505081526020016007820180546103c7906115e8565b80601f01602080910402602001604051908101604052809291908181526020018280546103f3906115e8565b80156104405780601f1061041557610100808354040283529160200191610440565b820191906000526020600020905b81548152906001019060200180831161042357829003601f168201915b50505050508152602001600882018054610459906115e8565b80601f0160208091040260200160405190810160405280929190818152602001828054610485906115e8565b80156104d25780601f106104a7576101008083540402835291602001916104d2565b820191906000526020600020905b8154815290600101906020018083116104b557829003601f168201915b50505050508152505090506104eb878260c00151610d6a565b1561058e57806000015173ffffffffffffffffffffffffffffffffffffffff163373ffffffffffffffffffffffffffffffffffffffff16148061055d5750806020015173ffffffffffffffffffffffffffffffffffffffff163373ffffffffffffffffffffffffffffffffffffffff16145b1561058457858160a0019015159081151581525050848160e0018190525060009250610589565b600a92505b610593565b601492505b8293505050509392505050565b600181815481106105b057600080fd5b90600052602060002090600902016000915090508060000160009054906101000a900473ffffffffffffffffffffffffffffffffffffffff16908060010160009054906101000a900473ffffffffffffffffffffffffffffffffffffffff16908060020154908060030154908060040154908060050160009054906101000a900460ff1690806006018054610644906115e8565b80601f0160208091040260200160405190810160405280929190818152602001828054610670906115e8565b80156106bd5780601f10610692576101008083540402835291602001916106bd565b820191906000526020600020905b8154815290600101906020018083116106a057829003601f168201915b5050505050908060070180546106d2906115e8565b80601f01602080910402602001604051908101604052809291908181526020018280546106fe906115e8565b801561074b5780601f106107205761010080835404028352916020019161074b565b820191906000526020600020905b81548152906001019060200180831161072e57829003601f168201915b505050505090806008018054610760906115e8565b80601f016020809104026020016040519081016040528092919081815260200182805461078c906115e8565b80156107d95780601f106107ae576101008083540402835291602001916107d9565b820191906000526020600020905b8154815290600101906020018083116107bc57829003601f168201915b5050505050905089565b60606001805480602002602001604051908101604052809291908181526020016000905b82821015610ad55783829060005260206000209060090201604051806101200160405290816000820160009054906101000a900473ffffffffffffffffffffffffffffffffffffffff1673ffffffffffffffffffffffffffffffffffffffff1673ffffffffffffffffffffffffffffffffffffffff1681526020016001820160009054906101000a900473ffffffffffffffffffffffffffffffffffffffff1673ffffffffffffffffffffffffffffffffffffffff1673ffffffffffffffffffffffffffffffffffffffff1681526020016002820154815260200160038201548152602001600482015481526020016005820160009054906101000a900460ff16151515158152602001600682018054610920906115e8565b80601f016020809104026020016040519081016040528092919081815260200182805461094c906115e8565b80156109995780601f1061096e57610100808354040283529160200191610999565b820191906000526020600020905b81548152906001019060200180831161097c57829003601f168201915b505050505081526020016007820180546109b2906115e8565b80601f01602080910402602001604051908101604052809291908181526020018280546109de906115e8565b8015610a2b5780601f10610a0057610100808354040283529160200191610a2b565b820191906000526020600020905b815481529060010190602001808311610a0e57829003601f168201915b50505050508152602001600882018054610a44906115e8565b80601f0160208091040260200160405190810160405280929190818152602001828054610a70906115e8565b8015610abd5780601f10610a9257610100808354040283529160200191610abd565b820191906000526020600020905b815481529060010190602001808311610aa057829003601f168201915b50505050508152505081526020019060010190610807565b50505050905090565b60016040518061012001604052808b73ffffffffffffffffffffffffffffffffffffffff1681526020018a73ffffffffffffffffffffffffffffffffffffffff168152602001898152602001888152602001878152602001861515815260200185815260200184815260200183815250908060018154018082558091505060019003906000526020600020906009020160009091909190915060008201518160000160006101000a81548173ffffffffffffffffffffffffffffffffffffffff021916908373ffffffffffffffffffffffffffffffffffffffff16021790555060208201518160010160006101000a81548173ffffffffffffffffffffffffffffffffffffffff021916908373ffffffffffffffffffffffffffffffffffffffff16021790555060408201518160020155606082015181600301556080820151816004015560a08201518160050160006101000a81548160ff02191690831515021790555060c0820151816006019080519060200190610c5f929190610da6565b5060e0820151816007019080519060200190610c7c929190610da6565b50610100820151816008019080519060200190610c9a929190610da6565b5050506001600080828254610caf9190611508565b92505081905550600054600284604051610cc99190611340565b9081526020016040518091039020819055507f83b947165a7a9aeb175dc97b5b536190af936285c6ffb4fbe9c689a071597098898989898989898989604051610d1a99989796959493929190611357565b60405180910390a1505050505050505050565b60005481565b60008054905090565b6002818051602081018201805184825260208301602085012081835280955050505050506000915090505481565b6000610d768383610d7e565b905092915050565b600081518351148015610d9e575081805190602001208380519060200120145b905092915050565b828054610db2906115e8565b90600052602060002090601f016020900481019282610dd45760008555610e1b565b82601f10610ded57805160ff1916838001178555610e1b565b82800160010185558215610e1b579182015b82811115610e1a578251825591602001919060010190610dff565b5b509050610e289190610e2c565b5090565b5b80821115610e45576000816000905550600101610e2d565b5090565b6000610e5c610e5784611467565b611436565b905082815260208101848484011115610e7457600080fd5b610e7f8482856115a6565b509392505050565b600081359050610e96816116b8565b92915050565b600081359050610eab816116cf565b92915050565b600082601f830112610ec257600080fd5b8135610ed2848260208601610e49565b91505092915050565b600081359050610eea816116e6565b92915050565b60008060008060008060008060006101208a8c031215610f0f57600080fd5b6000610f1d8c828d01610e87565b9950506020610f2e8c828d01610e87565b9850506040610f3f8c828d01610edb565b9750506060610f508c828d01610edb565b9650506080610f618c828d01610edb565b95505060a0610f728c828d01610e9c565b94505060c08a013567ffffffffffffffff811115610f8f57600080fd5b610f9b8c828d01610eb1565b93505060e08a013567ffffffffffffffff811115610fb857600080fd5b610fc48c828d01610eb1565b9250506101008a013567ffffffffffffffff811115610fe257600080fd5b610fee8c828d01610eb1565b9150509295985092959850929598565b60006020828403121561101057600080fd5b600082013567ffffffffffffffff81111561102a57600080fd5b61103684828501610eb1565b91505092915050565b60008060006060848603121561105457600080fd5b600084013567ffffffffffffffff81111561106e57600080fd5b61107a86828701610eb1565b935050602061108b86828701610e9c565b925050604084013567ffffffffffffffff8111156110a857600080fd5b6110b486828701610eb1565b9150509250925092565b6000602082840312156110d057600080fd5b60006110de84828501610edb565b91505092915050565b60006110f3838361124f565b905092915050565b6111048161155e565b82525050565b6111138161155e565b82525050565b6000611124826114a7565b61112e81856114ca565b93508360208202850161114085611497565b8060005b8581101561117c578484038952815161115d85826110e7565b9450611168836114bd565b925060208a01995050600181019050611144565b50829750879550505050505092915050565b61119781611570565b82525050565b6111a681611570565b82525050565b60006111b7826114b2565b6111c181856114db565b93506111d18185602086016115b5565b6111da816116a7565b840191505092915050565b60006111f0826114b2565b6111fa81856114ec565b935061120a8185602086016115b5565b611213816116a7565b840191505092915050565b6000611229826114b2565b61123381856114fd565b93506112438185602086016115b5565b80840191505092915050565b60006101208301600083015161126860008601826110fb565b50602083015161127b60208601826110fb565b50604083015161128e6040860182611322565b5060608301516112a16060860182611322565b5060808301516112b46080860182611322565b5060a08301516112c760a086018261118e565b5060c083015184820360c08601526112df82826111ac565b91505060e083015184820360e08601526112f982826111ac565b91505061010083015184820361010086015261131582826111ac565b9150508091505092915050565b61132b8161159c565b82525050565b61133a8161159c565b82525050565b600061134c828461121e565b915081905092915050565b60006101208201905061136d600083018c61110a565b61137a602083018b61110a565b611387604083018a611331565b6113946060830189611331565b6113a16080830188611331565b6113ae60a083018761119d565b81810360c08301526113c081866111e5565b905081810360e08301526113d481856111e5565b90508181036101008301526113e981846111e5565b90509a9950505050505050505050565b600060208201905081810360008301526114138184611119565b905092915050565b60006020820190506114306000830184611331565b92915050565b6000604051905081810181811067ffffffffffffffff8211171561145d5761145c611678565b5b8060405250919050565b600067ffffffffffffffff82111561148257611481611678565b5b601f19601f8301169050602081019050919050565b6000819050602082019050919050565b600081519050919050565b600081519050919050565b6000602082019050919050565b600082825260208201905092915050565b600082825260208201905092915050565b600082825260208201905092915050565b600081905092915050565b60006115138261159c565b915061151e8361159c565b9250827fffffffffffffffffffffffffffffffffffffffffffffffffffffffffffffffff038211156115535761155261161a565b5b828201905092915050565b60006115698261157c565b9050919050565b60008115159050919050565b600073ffffffffffffffffffffffffffffffffffffffff82169050919050565b6000819050919050565b82818337600083830152505050565b60005b838110156115d35780820151818401526020810190506115b8565b838111156115e2576000848401525b50505050565b6000600282049050600182168061160057607f821691505b6020821081141561161457611613611649565b5b50919050565b7f4e487b7100000000000000000000000000000000000000000000000000000000600052601160045260246000fd5b7f4e487b7100000000000000000000000000000000000000000000000000000000600052602260045260246000fd5b7f4e487b7100000000000000000000000000000000000000000000000000000000600052604160045260246000fd5b6000601f19601f8301169050919050565b6116c18161155e565b81146116cc57600080fd5b50565b6116d881611570565b81146116e357600080fd5b50565b6116ef8161159c565b81146116fa57600080fd5b5056fea264697066735822122022ac40ca3df97bc33247dae6ef8c7f4c3763a52d342a59932c61bdfbe23d91ec64736f6c63430008000033",
  "linkReferences": {},
  "deployedLinkReferences": {}
}