{
  "_format": "hh-sol-artifact-1",
  "contractName": "WalletReputations",
  "sourceName": "contracts/WalletReputations.sol",
  "abi": [
    {
      "inputs": [],
      "stateMutability": "nonpayable",
      "type": "constructor"
    },
    {
      "anonymous": false,
      "inputs": [
        {
          "indexed": false,
          "internalType": "address",
          "name": "sender",
          "type": "address"
        },
        {
          "indexed": false,
          "internalType": "address",
          "name": "receiver",
          "type": "address"
        },
        {
          "indexed": false,
          "internalType": "uint256",
          "name": "timestamp",
          "type": "uint256"
        },
        {
          "indexed": false,
          "internalType": "uint256",
          "name": "amount",
          "type": "uint256"
        },
        {
          "indexed": false,
          "internalType": "bool",
          "name": "fromFiled",
          "type": "bool"
        },
        {
          "indexed": false,
          "internalType": "bool",
          "name": "disputed",
          "type": "bool"
        },
        {
          "indexed": false,
          "internalType": "string",
          "name": "txnId",
          "type": "string"
        },
        {
          "indexed": false,
          "internalType": "string",
          "name": "messages",
          "type": "string"
        },
        {
          "indexed": false,
          "internalType": "string",
          "name": "tokenName",
          "type": "string"
        }
      ],
      "name": "NewReputationReport",
      "type": "event"
    },
    {
      "inputs": [],
      "name": "admin",
      "outputs": [
        {
          "internalType": "address payable",
          "name": "",
          "type": "address"
        }
      ],
      "stateMutability": "view",
      "type": "function"
    },
    {
      "inputs": [
        {
          "internalType": "uint256",
          "name": "newEntryFeeInWei",
          "type": "uint256"
        }
      ],
      "name": "changeEntryFee",
      "outputs": [],
      "stateMutability": "nonpayable",
      "type": "function"
    },
    {
      "inputs": [
        {
          "internalType": "address",
          "name": "_sender",
          "type": "address"
        },
        {
          "internalType": "address",
          "name": "_receiver",
          "type": "address"
        },
        {
          "internalType": "uint256",
          "name": "_timestamp",
          "type": "uint256"
        },
        {
          "internalType": "uint256",
          "name": "_amount",
          "type": "uint256"
        },
        {
          "internalType": "bool",
          "name": "_fromFiled",
          "type": "bool"
        },
        {
          "internalType": "bool",
          "name": "_disputed",
          "type": "bool"
        },
        {
          "internalType": "string",
          "name": "_txnId",
          "type": "string"
        },
        {
          "internalType": "string",
          "name": "_usersMessages",
          "type": "string"
        },
        {
          "internalType": "string",
          "name": "_tokenName",
          "type": "string"
        }
      ],
      "name": "createReputationReport",
      "outputs": [],
      "stateMutability": "payable",
      "type": "function"
    },
    {
      "inputs": [],
      "name": "entryFee",
      "outputs": [
        {
          "internalType": "uint256",
          "name": "",
          "type": "uint256"
        }
      ],
      "stateMutability": "view",
      "type": "function"
    },
    {
      "inputs": [],
      "name": "getAllReputationReports",
      "outputs": [
        {
          "components": [
            {
              "internalType": "address",
              "name": "sender",
              "type": "address"
            },
            {
              "internalType": "address",
              "name": "receiver",
              "type": "address"
            },
            {
              "internalType": "uint256",
              "name": "timestamp",
              "type": "uint256"
            },
            {
              "internalType": "uint256",
              "name": "amount",
              "type": "uint256"
            },
            {
              "internalType": "bool",
              "name": "fromFiled",
              "type": "bool"
            },
            {
              "internalType": "bool",
              "name": "disputed",
              "type": "bool"
            },
            {
              "internalType": "string",
              "name": "txnId",
              "type": "string"
            },
            {
              "internalType": "string",
              "name": "usersMessages",
              "type": "string"
            },
            {
              "internalType": "string",
              "name": "tokenName",
              "type": "string"
            }
          ],
          "internalType": "struct WalletReputations.ReputationReportStruct[]",
          "name": "",
          "type": "tuple[]"
        }
      ],
      "stateMutability": "view",
      "type": "function"
    },
    {
      "inputs": [],
      "name": "getReputationReportsCount",
      "outputs": [
        {
          "internalType": "uint256",
          "name": "",
          "type": "uint256"
        }
      ],
      "stateMutability": "view",
      "type": "function"
    },
    {
      "inputs": [],
      "name": "reputationReportCount",
      "outputs": [
        {
          "internalType": "uint256",
          "name": "",
          "type": "uint256"
        }
      ],
      "stateMutability": "view",
      "type": "function"
    },
    {
      "inputs": [
        {
          "internalType": "uint256",
          "name": "",
          "type": "uint256"
        }
      ],
      "name": "reputationReports",
      "outputs": [
        {
          "internalType": "address",
          "name": "sender",
          "type": "address"
        },
        {
          "internalType": "address",
          "name": "receiver",
          "type": "address"
        },
        {
          "internalType": "uint256",
          "name": "timestamp",
          "type": "uint256"
        },
        {
          "internalType": "uint256",
          "name": "amount",
          "type": "uint256"
        },
        {
          "internalType": "bool",
          "name": "fromFiled",
          "type": "bool"
        },
        {
          "internalType": "bool",
          "name": "disputed",
          "type": "bool"
        },
        {
          "internalType": "string",
          "name": "txnId",
          "type": "string"
        },
        {
          "internalType": "string",
          "name": "usersMessages",
          "type": "string"
        },
        {
          "internalType": "string",
          "name": "tokenName",
          "type": "string"
        }
      ],
      "stateMutability": "view",
      "type": "function"
    },
    {
      "inputs": [
        {
          "internalType": "string",
          "name": "",
          "type": "string"
        }
      ],
      "name": "transactionIdToIndex",
      "outputs": [
        {
          "internalType": "uint256",
          "name": "",
          "type": "uint256"
        }
      ],
      "stateMutability": "view",
      "type": "function"
    },
    {
      "inputs": [
        {
          "internalType": "string",
          "name": "_txnId",
          "type": "string"
        },
        {
          "internalType": "bool",
          "name": "_disputed",
          "type": "bool"
        },
        {
          "internalType": "string",
          "name": "_messages",
          "type": "string"
        }
      ],
      "name": "updateReputationReport",
      "outputs": [],
      "stateMutability": "payable",
      "type": "function"
    },
    {
      "inputs": [],
      "name": "withdraw",
      "outputs": [],
      "stateMutability": "payable",
      "type": "function"
    }
  ],
  "bytecode": "0x608060405234801561001057600080fd5b5033600160006101000a81548173ffffffffffffffffffffffffffffffffffffffff021916908373ffffffffffffffffffffffffffffffffffffffff16021790555066058386d4a51c00600281905550611be98061006f6000396000f3fe60806040526004361061009c5760003560e01c80635a8c7865116100645780635a8c78651461016257806375777b431461017e57806376a6c64f146101a9578063820a77b9146101d4578063f7d978a214610211578063f851a4401461023a5761009c565b8063072ea61c146100a15780632c5bdfaf146100cc5780633ccfd60b146100e857806341d0a278146100f257806345884db614610137575b600080fd5b3480156100ad57600080fd5b506100b6610265565b6040516100c391906118bf565b60405180910390f35b6100e660048036038101906100e1919061134d565b61026b565b005b6100f06106f7565b005b3480156100fe57600080fd5b50610119600480360381019061011491906113cc565b61079a565b60405161012e9998979695949392919061179b565b60405180910390f35b34801561014357600080fd5b5061014c6109ea565b604051610159919061183d565b60405180910390f35b61017c600480360381019061017791906111fe565b610cf6565b005b34801561018a57600080fd5b50610193610fa2565b6040516101a091906118bf565b60405180910390f35b3480156101b557600080fd5b506101be610fa8565b6040516101cb91906118bf565b60405180910390f35b3480156101e057600080fd5b506101fb60048036038101906101f6919061130c565b610fb1565b60405161020891906118bf565b60405180910390f35b34801561021d57600080fd5b50610238600480360381019061023391906113cc565b610fdf565b005b34801561024657600080fd5b5061024f611052565b60405161025c9190611780565b60405180910390f35b60025481565b6002543410156102b0576040517f08c379a00000000000000000000000000000000000000000000000000000000081526004016102a79061189f565b60405180910390fd5b60006004846040516102c29190611769565b908152602001604051809103902054905060006003828154811061030f577f4e487b7100000000000000000000000000000000000000000000000000000000600052603260045260246000fd5b9060005260206000209060080201604051806101200160405290816000820160009054906101000a900473ffffffffffffffffffffffffffffffffffffffff1673ffffffffffffffffffffffffffffffffffffffff1673ffffffffffffffffffffffffffffffffffffffff1681526020016001820160009054906101000a900473ffffffffffffffffffffffffffffffffffffffff1673ffffffffffffffffffffffffffffffffffffffff1673ffffffffffffffffffffffffffffffffffffffff16815260200160028201548152602001600382015481526020016004820160009054906101000a900460ff161515151581526020016004820160019054906101000a900460ff1615151515815260200160058201805461042f90611a9e565b80601f016020809104026020016040519081016040528092919081815260200182805461045b90611a9e565b80156104a85780601f1061047d576101008083540402835291602001916104a8565b820191906000526020600020905b81548152906001019060200180831161048b57829003601f168201915b505050505081526020016006820180546104c190611a9e565b80601f01602080910402602001604051908101604052809291908181526020018280546104ed90611a9e565b801561053a5780601f1061050f5761010080835404028352916020019161053a565b820191906000526020600020905b81548152906001019060200180831161051d57829003601f168201915b5050505050815260200160078201805461055390611a9e565b80601f016020809104026020016040519081016040528092919081815260200182805461057f90611a9e565b80156105cc5780601f106105a1576101008083540402835291602001916105cc565b820191906000526020600020905b8154815290600101906020018083116105af57829003601f168201915b5050505050815250509050600115156105e9868360c00151611078565b15151461062b576040517f08c379a00000000000000000000000000000000000000000000000000000000081526004016106229061187f565b60405180910390fd5b806000015173ffffffffffffffffffffffffffffffffffffffff163373ffffffffffffffffffffffffffffffffffffffff1614806106985750806020015173ffffffffffffffffffffffffffffffffffffffff163373ffffffffffffffffffffffffffffffffffffffff16145b6106d7576040517f08c379a00000000000000000000000000000000000000000000000000000000081526004016106ce9061185f565b60405180910390fd5b838160a0019015159081151581525050828160e001819052505050505050565b600160009054906101000a900473ffffffffffffffffffffffffffffffffffffffff1673ffffffffffffffffffffffffffffffffffffffff163373ffffffffffffffffffffffffffffffffffffffff161461075157600080fd5b3373ffffffffffffffffffffffffffffffffffffffff166108fc479081150290604051600060405180830381858888f19350505050158015610797573d6000803e3d6000fd5b50565b600381815481106107aa57600080fd5b90600052602060002090600802016000915090508060000160009054906101000a900473ffffffffffffffffffffffffffffffffffffffff16908060010160009054906101000a900473ffffffffffffffffffffffffffffffffffffffff16908060020154908060030154908060040160009054906101000a900460ff16908060040160019054906101000a900460ff169080600501805461084b90611a9e565b80601f016020809104026020016040519081016040528092919081815260200182805461087790611a9e565b80156108c45780601f10610899576101008083540402835291602001916108c4565b820191906000526020600020905b8154815290600101906020018083116108a757829003601f168201915b5050505050908060060180546108d990611a9e565b80601f016020809104026020016040519081016040528092919081815260200182805461090590611a9e565b80156109525780601f1061092757610100808354040283529160200191610952565b820191906000526020600020905b81548152906001019060200180831161093557829003601f168201915b50505050509080600701805461096790611a9e565b80601f016020809104026020016040519081016040528092919081815260200182805461099390611a9e565b80156109e05780601f106109b5576101008083540402835291602001916109e0565b820191906000526020600020905b8154815290600101906020018083116109c357829003601f168201915b5050505050905089565b60606003805480602002602001604051908101604052809291908181526020016000905b82821015610ced5783829060005260206000209060080201604051806101200160405290816000820160009054906101000a900473ffffffffffffffffffffffffffffffffffffffff1673ffffffffffffffffffffffffffffffffffffffff1673ffffffffffffffffffffffffffffffffffffffff1681526020016001820160009054906101000a900473ffffffffffffffffffffffffffffffffffffffff1673ffffffffffffffffffffffffffffffffffffffff1673ffffffffffffffffffffffffffffffffffffffff16815260200160028201548152602001600382015481526020016004820160009054906101000a900460ff161515151581526020016004820160019054906101000a900460ff16151515158152602001600582018054610b3890611a9e565b80601f0160208091040260200160405190810160405280929190818152602001828054610b6490611a9e565b8015610bb15780601f10610b8657610100808354040283529160200191610bb1565b820191906000526020600020905b815481529060010190602001808311610b9457829003601f168201915b50505050508152602001600682018054610bca90611a9e565b80601f0160208091040260200160405190810160405280929190818152602001828054610bf690611a9e565b8015610c435780601f10610c1857610100808354040283529160200191610c43565b820191906000526020600020905b815481529060010190602001808311610c2657829003601f168201915b50505050508152602001600782018054610c5c90611a9e565b80601f0160208091040260200160405190810160405280929190818152602001828054610c8890611a9e565b8015610cd55780601f10610caa57610100808354040283529160200191610cd5565b820191906000526020600020905b815481529060010190602001808311610cb857829003601f168201915b50505050508152505081526020019060010190610a0e565b50505050905090565b600254341015610d3b576040517f08c379a0000000000000000000000000000000000000000000000000000000008152600401610d329061189f565b60405180910390fd5b60036040518061012001604052808b73ffffffffffffffffffffffffffffffffffffffff1681526020018a73ffffffffffffffffffffffffffffffffffffffff1681526020018981526020018881526020018715158152602001861515815260200185815260200184815260200183815250908060018154018082558091505060019003906000526020600020906008020160009091909190915060008201518160000160006101000a81548173ffffffffffffffffffffffffffffffffffffffff021916908373ffffffffffffffffffffffffffffffffffffffff16021790555060208201518160010160006101000a81548173ffffffffffffffffffffffffffffffffffffffff021916908373ffffffffffffffffffffffffffffffffffffffff160217905550604082015181600201556060820151816003015560808201518160040160006101000a81548160ff02191690831515021790555060a08201518160040160016101000a81548160ff02191690831515021790555060c0820151816005019080519060200190610ed49291906110b4565b5060e0820151816006019080519060200190610ef19291906110b4565b50610100820151816007019080519060200190610f0f9291906110b4565b5050506001600080828254610f2491906119ac565b92505081905550600054600484604051610f3e9190611769565b9081526020016040518091039020819055507fbd8119c74227709550b57f29ea6a8e86b4bb0f52df3f0e0714d6557df9f0685a898989898989898989604051610f8f9998979695949392919061179b565b60405180910390a1505050505050505050565b60005481565b60008054905090565b6004818051602081018201805184825260208301602085012081835280955050505050506000915090505481565b600160009054906101000a900473ffffffffffffffffffffffffffffffffffffffff1673ffffffffffffffffffffffffffffffffffffffff163373ffffffffffffffffffffffffffffffffffffffff161461103957600080fd5b60025481141561104857600080fd5b8060028190555050565b600160009054906101000a900473ffffffffffffffffffffffffffffffffffffffff1681565b6000611084838361108c565b905092915050565b6000815183511480156110ac575081805190602001208380519060200120145b905092915050565b8280546110c090611a9e565b90600052602060002090601f0160209004810192826110e25760008555611129565b82601f106110fb57805160ff1916838001178555611129565b82800160010185558215611129579182015b8281111561112857825182559160200191906001019061110d565b5b509050611136919061113a565b5090565b5b8082111561115357600081600090555060010161113b565b5090565b600061116a6111658461190b565b6118da565b90508281526020810184848401111561118257600080fd5b61118d848285611a5c565b509392505050565b6000813590506111a481611b6e565b92915050565b6000813590506111b981611b85565b92915050565b600082601f8301126111d057600080fd5b81356111e0848260208601611157565b91505092915050565b6000813590506111f881611b9c565b92915050565b60008060008060008060008060006101208a8c03121561121d57600080fd5b600061122b8c828d01611195565b995050602061123c8c828d01611195565b985050604061124d8c828d016111e9565b975050606061125e8c828d016111e9565b965050608061126f8c828d016111aa565b95505060a06112808c828d016111aa565b94505060c08a013567ffffffffffffffff81111561129d57600080fd5b6112a98c828d016111bf565b93505060e08a013567ffffffffffffffff8111156112c657600080fd5b6112d28c828d016111bf565b9250506101008a013567ffffffffffffffff8111156112f057600080fd5b6112fc8c828d016111bf565b9150509295985092959850929598565b60006020828403121561131e57600080fd5b600082013567ffffffffffffffff81111561133857600080fd5b611344848285016111bf565b91505092915050565b60008060006060848603121561136257600080fd5b600084013567ffffffffffffffff81111561137c57600080fd5b611388868287016111bf565b9350506020611399868287016111aa565b925050604084013567ffffffffffffffff8111156113b657600080fd5b6113c2868287016111bf565b9150509250925092565b6000602082840312156113de57600080fd5b60006113ec848285016111e9565b91505092915050565b60006114018383611678565b905092915050565b61141281611a14565b82525050565b61142181611a02565b82525050565b61143081611a02565b82525050565b60006114418261194b565b61144b818561196e565b93508360208202850161145d8561193b565b8060005b85811015611499578484038952815161147a85826113f5565b945061148583611961565b925060208a01995050600181019050611461565b50829750879550505050505092915050565b6114b481611a26565b82525050565b6114c381611a26565b82525050565b60006114d482611956565b6114de818561197f565b93506114ee818560208601611a6b565b6114f781611b5d565b840191505092915050565b600061150d82611956565b6115178185611990565b9350611527818560208601611a6b565b61153081611b5d565b840191505092915050565b600061154682611956565b61155081856119a1565b9350611560818560208601611a6b565b80840191505092915050565b6000611579604d83611990565b91507f5570646174652063616e206f6e6c7920626520646f6e6520627920746865207360008301527f656e646572206f72207265636569766572206f6620746865206f726967696e6160208301527f6c207472616e73616374696f6e000000000000000000000000000000000000006040830152606082019050919050565b6000611605601783611990565b91507f5472616e73616374696f6e204964206d69736d617463680000000000000000006000830152602082019050919050565b6000611645601983611990565b91507f4d696e696d756d20656e74727920666565206e6f74206d6574000000000000006000830152602082019050919050565b6000610120830160008301516116916000860182611418565b5060208301516116a46020860182611418565b5060408301516116b7604086018261174b565b5060608301516116ca606086018261174b565b5060808301516116dd60808601826114ab565b5060a08301516116f060a08601826114ab565b5060c083015184820360c086015261170882826114c9565b91505060e083015184820360e086015261172282826114c9565b91505061010083015184820361010086015261173e82826114c9565b9150508091505092915050565b61175481611a52565b82525050565b61176381611a52565b82525050565b6000611775828461153b565b915081905092915050565b60006020820190506117956000830184611409565b92915050565b6000610120820190506117b1600083018c611427565b6117be602083018b611427565b6117cb604083018a61175a565b6117d8606083018961175a565b6117e560808301886114ba565b6117f260a08301876114ba565b81810360c08301526118048186611502565b905081810360e08301526118188185611502565b905081810361010083015261182d8184611502565b90509a9950505050505050505050565b600060208201905081810360008301526118578184611436565b905092915050565b600060208201905081810360008301526118788161156c565b9050919050565b60006020820190508181036000830152611898816115f8565b9050919050565b600060208201905081810360008301526118b881611638565b9050919050565b60006020820190506118d4600083018461175a565b92915050565b6000604051905081810181811067ffffffffffffffff8211171561190157611900611b2e565b5b8060405250919050565b600067ffffffffffffffff82111561192657611925611b2e565b5b601f19601f8301169050602081019050919050565b6000819050602082019050919050565b600081519050919050565b600081519050919050565b6000602082019050919050565b600082825260208201905092915050565b600082825260208201905092915050565b600082825260208201905092915050565b600081905092915050565b60006119b782611a52565b91506119c283611a52565b9250827fffffffffffffffffffffffffffffffffffffffffffffffffffffffffffffffff038211156119f7576119f6611ad0565b5b828201905092915050565b6000611a0d82611a32565b9050919050565b6000611a1f82611a32565b9050919050565b60008115159050919050565b600073ffffffffffffffffffffffffffffffffffffffff82169050919050565b6000819050919050565b82818337600083830152505050565b60005b83811015611a89578082015181840152602081019050611a6e565b83811115611a98576000848401525b50505050565b60006002820490506001821680611ab657607f821691505b60208210811415611aca57611ac9611aff565b5b50919050565b7f4e487b7100000000000000000000000000000000000000000000000000000000600052601160045260246000fd5b7f4e487b7100000000000000000000000000000000000000000000000000000000600052602260045260246000fd5b7f4e487b7100000000000000000000000000000000000000000000000000000000600052604160045260246000fd5b6000601f19601f8301169050919050565b611b7781611a02565b8114611b8257600080fd5b50565b611b8e81611a26565b8114611b9957600080fd5b50565b611ba581611a52565b8114611bb057600080fd5b5056fea2646970667358221220290dc2fab0eb300af7e884522749e41a88d95c09ab23da4256bd56a0ea94332464736f6c63430008000033",
  "linkReferences": {},
  "deployedLinkReferences": {}
}