{
  "_format": "hh-sol-artifact-1",
  "contractName": "WalletReputations",
  "sourceName": "contracts/WalletReputations.sol",
  "abi": [
    {
      "inputs": [],
      "stateMutability": "nonpayable",
      "type": "constructor"
    },
    {
      "anonymous": false,
      "inputs": [
        {
          "indexed": false,
          "internalType": "address",
          "name": "sender",
          "type": "address"
        },
        {
          "indexed": false,
          "internalType": "address",
          "name": "receiver",
          "type": "address"
        },
        {
          "indexed": false,
          "internalType": "uint256",
          "name": "timestamp",
          "type": "uint256"
        },
        {
          "indexed": false,
          "internalType": "uint256",
          "name": "amount",
          "type": "uint256"
        },
        {
          "indexed": false,
          "internalType": "uint256",
          "name": "whoFiled",
          "type": "uint256"
        },
        {
          "indexed": false,
          "internalType": "bool",
          "name": "disputed",
          "type": "bool"
        },
        {
          "indexed": false,
          "internalType": "string",
          "name": "txnId",
          "type": "string"
        },
        {
          "indexed": false,
          "internalType": "string",
          "name": "messages",
          "type": "string"
        },
        {
          "indexed": false,
          "internalType": "string",
          "name": "tokenName",
          "type": "string"
        }
      ],
      "name": "NewReputationReport",
      "type": "event"
    },
    {
      "inputs": [],
      "name": "admin",
      "outputs": [
        {
          "internalType": "address payable",
          "name": "",
          "type": "address"
        }
      ],
      "stateMutability": "view",
      "type": "function"
    },
    {
      "inputs": [
        {
          "internalType": "uint256",
          "name": "newEntryFeeInWei",
          "type": "uint256"
        }
      ],
      "name": "changeEntryFee",
      "outputs": [],
      "stateMutability": "nonpayable",
      "type": "function"
    },
    {
      "inputs": [
        {
          "internalType": "address",
          "name": "_sender",
          "type": "address"
        },
        {
          "internalType": "address",
          "name": "_receiver",
          "type": "address"
        },
        {
          "internalType": "uint256",
          "name": "_timestamp",
          "type": "uint256"
        },
        {
          "internalType": "uint256",
          "name": "_amount",
          "type": "uint256"
        },
        {
          "internalType": "uint256",
          "name": "_whoFiled",
          "type": "uint256"
        },
        {
          "internalType": "bool",
          "name": "_disputed",
          "type": "bool"
        },
        {
          "internalType": "string",
          "name": "_txnId",
          "type": "string"
        },
        {
          "internalType": "string",
          "name": "_usersMessages",
          "type": "string"
        },
        {
          "internalType": "string",
          "name": "_tokenName",
          "type": "string"
        }
      ],
      "name": "createReputationReport",
      "outputs": [],
      "stateMutability": "payable",
      "type": "function"
    },
    {
      "inputs": [],
      "name": "entryFee",
      "outputs": [
        {
          "internalType": "uint256",
          "name": "",
          "type": "uint256"
        }
      ],
      "stateMutability": "view",
      "type": "function"
    },
    {
      "inputs": [],
      "name": "getAllReputationReports",
      "outputs": [
        {
          "components": [
            {
              "internalType": "address",
              "name": "sender",
              "type": "address"
            },
            {
              "internalType": "address",
              "name": "receiver",
              "type": "address"
            },
            {
              "internalType": "uint256",
              "name": "timestamp",
              "type": "uint256"
            },
            {
              "internalType": "uint256",
              "name": "amount",
              "type": "uint256"
            },
            {
              "internalType": "uint256",
              "name": "whoFiled",
              "type": "uint256"
            },
            {
              "internalType": "bool",
              "name": "disputed",
              "type": "bool"
            },
            {
              "internalType": "string",
              "name": "txnId",
              "type": "string"
            },
            {
              "internalType": "string",
              "name": "usersMessages",
              "type": "string"
            },
            {
              "internalType": "string",
              "name": "tokenName",
              "type": "string"
            }
          ],
          "internalType": "struct WalletReputations.ReputationReportStruct[]",
          "name": "",
          "type": "tuple[]"
        }
      ],
      "stateMutability": "view",
      "type": "function"
    },
    {
      "inputs": [],
      "name": "getReputationReportsCount",
      "outputs": [
        {
          "internalType": "uint256",
          "name": "",
          "type": "uint256"
        }
      ],
      "stateMutability": "view",
      "type": "function"
    },
    {
      "inputs": [],
      "name": "reputationReportCount",
      "outputs": [
        {
          "internalType": "uint256",
          "name": "",
          "type": "uint256"
        }
      ],
      "stateMutability": "view",
      "type": "function"
    },
    {
      "inputs": [
        {
          "internalType": "uint256",
          "name": "",
          "type": "uint256"
        }
      ],
      "name": "reputationReports",
      "outputs": [
        {
          "internalType": "address",
          "name": "sender",
          "type": "address"
        },
        {
          "internalType": "address",
          "name": "receiver",
          "type": "address"
        },
        {
          "internalType": "uint256",
          "name": "timestamp",
          "type": "uint256"
        },
        {
          "internalType": "uint256",
          "name": "amount",
          "type": "uint256"
        },
        {
          "internalType": "uint256",
          "name": "whoFiled",
          "type": "uint256"
        },
        {
          "internalType": "bool",
          "name": "disputed",
          "type": "bool"
        },
        {
          "internalType": "string",
          "name": "txnId",
          "type": "string"
        },
        {
          "internalType": "string",
          "name": "usersMessages",
          "type": "string"
        },
        {
          "internalType": "string",
          "name": "tokenName",
          "type": "string"
        }
      ],
      "stateMutability": "view",
      "type": "function"
    },
    {
      "inputs": [
        {
          "internalType": "string",
          "name": "",
          "type": "string"
        }
      ],
      "name": "transactionIdToIndex",
      "outputs": [
        {
          "internalType": "uint256",
          "name": "",
          "type": "uint256"
        }
      ],
      "stateMutability": "view",
      "type": "function"
    },
    {
      "inputs": [
        {
          "internalType": "string",
          "name": "_txnId",
          "type": "string"
        },
        {
          "internalType": "bool",
          "name": "_disputed",
          "type": "bool"
        },
        {
          "internalType": "string",
          "name": "_messages",
          "type": "string"
        }
      ],
      "name": "updateReputationReport",
      "outputs": [],
      "stateMutability": "payable",
      "type": "function"
    },
    {
      "inputs": [],
      "name": "withdraw",
      "outputs": [],
      "stateMutability": "payable",
      "type": "function"
    }
  ],
  "bytecode": "0x608060405234801561001057600080fd5b5033600160006101000a81548173ffffffffffffffffffffffffffffffffffffffff021916908373ffffffffffffffffffffffffffffffffffffffff16021790555066058386d4a51c00600281905550611ba28061006f6000396000f3fe60806040526004361061009c5760003560e01c80635a6cc762116100645780635a6cc7621461016257806375777b431461017e57806376a6c64f146101a9578063820a77b9146101d4578063f7d978a214610211578063f851a4401461023a5761009c565b8063072ea61c146100a15780632c5bdfaf146100cc5780633ccfd60b146100e857806341d0a278146100f257806345884db614610137575b600080fd5b3480156100ad57600080fd5b506100b6610265565b6040516100c39190611878565b60405180910390f35b6100e660048036038101906100e19190611306565b61026b565b005b6100f06106e6565b005b3480156100fe57600080fd5b5061011960048036038101906101149190611385565b610789565b60405161012e99989796959493929190611754565b60405180910390f35b34801561014357600080fd5b5061014c6109cc565b60405161015991906117f6565b60405180910390f35b61017c600480360381019061017791906111b7565b610cc7565b005b34801561018a57600080fd5b50610193610f5b565b6040516101a09190611878565b60405180910390f35b3480156101b557600080fd5b506101be610f61565b6040516101cb9190611878565b60405180910390f35b3480156101e057600080fd5b506101fb60048036038101906101f691906112c5565b610f6a565b6040516102089190611878565b60405180910390f35b34801561021d57600080fd5b5061023860048036038101906102339190611385565b610f98565b005b34801561024657600080fd5b5061024f61100b565b60405161025c9190611739565b60405180910390f35b60025481565b6002543410156102b0576040517f08c379a00000000000000000000000000000000000000000000000000000000081526004016102a790611858565b60405180910390fd5b60006004846040516102c29190611722565b908152602001604051809103902054905060006003828154811061030f577f4e487b7100000000000000000000000000000000000000000000000000000000600052603260045260246000fd5b9060005260206000209060090201604051806101200160405290816000820160009054906101000a900473ffffffffffffffffffffffffffffffffffffffff1673ffffffffffffffffffffffffffffffffffffffff1673ffffffffffffffffffffffffffffffffffffffff1681526020016001820160009054906101000a900473ffffffffffffffffffffffffffffffffffffffff1673ffffffffffffffffffffffffffffffffffffffff1673ffffffffffffffffffffffffffffffffffffffff1681526020016002820154815260200160038201548152602001600482015481526020016005820160009054906101000a900460ff1615151515815260200160068201805461041e90611a57565b80601f016020809104026020016040519081016040528092919081815260200182805461044a90611a57565b80156104975780601f1061046c57610100808354040283529160200191610497565b820191906000526020600020905b81548152906001019060200180831161047a57829003601f168201915b505050505081526020016007820180546104b090611a57565b80601f01602080910402602001604051908101604052809291908181526020018280546104dc90611a57565b80156105295780601f106104fe57610100808354040283529160200191610529565b820191906000526020600020905b81548152906001019060200180831161050c57829003601f168201915b5050505050815260200160088201805461054290611a57565b80601f016020809104026020016040519081016040528092919081815260200182805461056e90611a57565b80156105bb5780601f10610590576101008083540402835291602001916105bb565b820191906000526020600020905b81548152906001019060200180831161059e57829003601f168201915b5050505050815250509050600115156105d8868360c00151611031565b15151461061a576040517f08c379a000000000000000000000000000000000000000000000000000000000815260040161061190611838565b60405180910390fd5b806000015173ffffffffffffffffffffffffffffffffffffffff163373ffffffffffffffffffffffffffffffffffffffff1614806106875750806020015173ffffffffffffffffffffffffffffffffffffffff163373ffffffffffffffffffffffffffffffffffffffff16145b6106c6576040517f08c379a00000000000000000000000000000000000000000000000000000000081526004016106bd90611818565b60405180910390fd5b838160a0019015159081151581525050828160e001819052505050505050565b600160009054906101000a900473ffffffffffffffffffffffffffffffffffffffff1673ffffffffffffffffffffffffffffffffffffffff163373ffffffffffffffffffffffffffffffffffffffff161461074057600080fd5b3373ffffffffffffffffffffffffffffffffffffffff166108fc479081150290604051600060405180830381858888f19350505050158015610786573d6000803e3d6000fd5b50565b6003818154811061079957600080fd5b90600052602060002090600902016000915090508060000160009054906101000a900473ffffffffffffffffffffffffffffffffffffffff16908060010160009054906101000a900473ffffffffffffffffffffffffffffffffffffffff16908060020154908060030154908060040154908060050160009054906101000a900460ff169080600601805461082d90611a57565b80601f016020809104026020016040519081016040528092919081815260200182805461085990611a57565b80156108a65780601f1061087b576101008083540402835291602001916108a6565b820191906000526020600020905b81548152906001019060200180831161088957829003601f168201915b5050505050908060070180546108bb90611a57565b80601f01602080910402602001604051908101604052809291908181526020018280546108e790611a57565b80156109345780601f1061090957610100808354040283529160200191610934565b820191906000526020600020905b81548152906001019060200180831161091757829003601f168201915b50505050509080600801805461094990611a57565b80601f016020809104026020016040519081016040528092919081815260200182805461097590611a57565b80156109c25780601f10610997576101008083540402835291602001916109c2565b820191906000526020600020905b8154815290600101906020018083116109a557829003601f168201915b5050505050905089565b60606003805480602002602001604051908101604052809291908181526020016000905b82821015610cbe5783829060005260206000209060090201604051806101200160405290816000820160009054906101000a900473ffffffffffffffffffffffffffffffffffffffff1673ffffffffffffffffffffffffffffffffffffffff1673ffffffffffffffffffffffffffffffffffffffff1681526020016001820160009054906101000a900473ffffffffffffffffffffffffffffffffffffffff1673ffffffffffffffffffffffffffffffffffffffff1673ffffffffffffffffffffffffffffffffffffffff1681526020016002820154815260200160038201548152602001600482015481526020016005820160009054906101000a900460ff16151515158152602001600682018054610b0990611a57565b80601f0160208091040260200160405190810160405280929190818152602001828054610b3590611a57565b8015610b825780601f10610b5757610100808354040283529160200191610b82565b820191906000526020600020905b815481529060010190602001808311610b6557829003601f168201915b50505050508152602001600782018054610b9b90611a57565b80601f0160208091040260200160405190810160405280929190818152602001828054610bc790611a57565b8015610c145780601f10610be957610100808354040283529160200191610c14565b820191906000526020600020905b815481529060010190602001808311610bf757829003601f168201915b50505050508152602001600882018054610c2d90611a57565b80601f0160208091040260200160405190810160405280929190818152602001828054610c5990611a57565b8015610ca65780601f10610c7b57610100808354040283529160200191610ca6565b820191906000526020600020905b815481529060010190602001808311610c8957829003601f168201915b505050505081525050815260200190600101906109f0565b50505050905090565b600254341015610d0c576040517f08c379a0000000000000000000000000000000000000000000000000000000008152600401610d0390611858565b60405180910390fd5b60036040518061012001604052808b73ffffffffffffffffffffffffffffffffffffffff1681526020018a73ffffffffffffffffffffffffffffffffffffffff168152602001898152602001888152602001878152602001861515815260200185815260200184815260200183815250908060018154018082558091505060019003906000526020600020906009020160009091909190915060008201518160000160006101000a81548173ffffffffffffffffffffffffffffffffffffffff021916908373ffffffffffffffffffffffffffffffffffffffff16021790555060208201518160010160006101000a81548173ffffffffffffffffffffffffffffffffffffffff021916908373ffffffffffffffffffffffffffffffffffffffff16021790555060408201518160020155606082015181600301556080820151816004015560a08201518160050160006101000a81548160ff02191690831515021790555060c0820151816006019080519060200190610e8d92919061106d565b5060e0820151816007019080519060200190610eaa92919061106d565b50610100820151816008019080519060200190610ec892919061106d565b5050506001600080828254610edd9190611965565b92505081905550600054600484604051610ef79190611722565b9081526020016040518091039020819055507f83b947165a7a9aeb175dc97b5b536190af936285c6ffb4fbe9c689a071597098898989898989898989604051610f4899989796959493929190611754565b60405180910390a1505050505050505050565b60005481565b60008054905090565b6004818051602081018201805184825260208301602085012081835280955050505050506000915090505481565b600160009054906101000a900473ffffffffffffffffffffffffffffffffffffffff1673ffffffffffffffffffffffffffffffffffffffff163373ffffffffffffffffffffffffffffffffffffffff1614610ff257600080fd5b60025481141561100157600080fd5b8060028190555050565b600160009054906101000a900473ffffffffffffffffffffffffffffffffffffffff1681565b600061103d8383611045565b905092915050565b600081518351148015611065575081805190602001208380519060200120145b905092915050565b82805461107990611a57565b90600052602060002090601f01602090048101928261109b57600085556110e2565b82601f106110b457805160ff19168380011785556110e2565b828001600101855582156110e2579182015b828111156110e15782518255916020019190600101906110c6565b5b5090506110ef91906110f3565b5090565b5b8082111561110c5760008160009055506001016110f4565b5090565b600061112361111e846118c4565b611893565b90508281526020810184848401111561113b57600080fd5b611146848285611a15565b509392505050565b60008135905061115d81611b27565b92915050565b60008135905061117281611b3e565b92915050565b600082601f83011261118957600080fd5b8135611199848260208601611110565b91505092915050565b6000813590506111b181611b55565b92915050565b60008060008060008060008060006101208a8c0312156111d657600080fd5b60006111e48c828d0161114e565b99505060206111f58c828d0161114e565b98505060406112068c828d016111a2565b97505060606112178c828d016111a2565b96505060806112288c828d016111a2565b95505060a06112398c828d01611163565b94505060c08a013567ffffffffffffffff81111561125657600080fd5b6112628c828d01611178565b93505060e08a013567ffffffffffffffff81111561127f57600080fd5b61128b8c828d01611178565b9250506101008a013567ffffffffffffffff8111156112a957600080fd5b6112b58c828d01611178565b9150509295985092959850929598565b6000602082840312156112d757600080fd5b600082013567ffffffffffffffff8111156112f157600080fd5b6112fd84828501611178565b91505092915050565b60008060006060848603121561131b57600080fd5b600084013567ffffffffffffffff81111561133557600080fd5b61134186828701611178565b935050602061135286828701611163565b925050604084013567ffffffffffffffff81111561136f57600080fd5b61137b86828701611178565b9150509250925092565b60006020828403121561139757600080fd5b60006113a5848285016111a2565b91505092915050565b60006113ba8383611631565b905092915050565b6113cb816119cd565b82525050565b6113da816119bb565b82525050565b6113e9816119bb565b82525050565b60006113fa82611904565b6114048185611927565b935083602082028501611416856118f4565b8060005b85811015611452578484038952815161143385826113ae565b945061143e8361191a565b925060208a0199505060018101905061141a565b50829750879550505050505092915050565b61146d816119df565b82525050565b61147c816119df565b82525050565b600061148d8261190f565b6114978185611938565b93506114a7818560208601611a24565b6114b081611b16565b840191505092915050565b60006114c68261190f565b6114d08185611949565b93506114e0818560208601611a24565b6114e981611b16565b840191505092915050565b60006114ff8261190f565b611509818561195a565b9350611519818560208601611a24565b80840191505092915050565b6000611532604d83611949565b91507f5570646174652063616e206f6e6c7920626520646f6e6520627920746865207360008301527f656e646572206f72207265636569766572206f6620746865206f726967696e6160208301527f6c207472616e73616374696f6e000000000000000000000000000000000000006040830152606082019050919050565b60006115be601783611949565b91507f5472616e73616374696f6e204964206d69736d617463680000000000000000006000830152602082019050919050565b60006115fe601983611949565b91507f4d696e696d756d20656e74727920666565206e6f74206d6574000000000000006000830152602082019050919050565b60006101208301600083015161164a60008601826113d1565b50602083015161165d60208601826113d1565b5060408301516116706040860182611704565b5060608301516116836060860182611704565b5060808301516116966080860182611704565b5060a08301516116a960a0860182611464565b5060c083015184820360c08601526116c18282611482565b91505060e083015184820360e08601526116db8282611482565b9150506101008301518482036101008601526116f78282611482565b9150508091505092915050565b61170d81611a0b565b82525050565b61171c81611a0b565b82525050565b600061172e82846114f4565b915081905092915050565b600060208201905061174e60008301846113c2565b92915050565b60006101208201905061176a600083018c6113e0565b611777602083018b6113e0565b611784604083018a611713565b6117916060830189611713565b61179e6080830188611713565b6117ab60a0830187611473565b81810360c08301526117bd81866114bb565b905081810360e08301526117d181856114bb565b90508181036101008301526117e681846114bb565b90509a9950505050505050505050565b6000602082019050818103600083015261181081846113ef565b905092915050565b6000602082019050818103600083015261183181611525565b9050919050565b60006020820190508181036000830152611851816115b1565b9050919050565b60006020820190508181036000830152611871816115f1565b9050919050565b600060208201905061188d6000830184611713565b92915050565b6000604051905081810181811067ffffffffffffffff821117156118ba576118b9611ae7565b5b8060405250919050565b600067ffffffffffffffff8211156118df576118de611ae7565b5b601f19601f8301169050602081019050919050565b6000819050602082019050919050565b600081519050919050565b600081519050919050565b6000602082019050919050565b600082825260208201905092915050565b600082825260208201905092915050565b600082825260208201905092915050565b600081905092915050565b600061197082611a0b565b915061197b83611a0b565b9250827fffffffffffffffffffffffffffffffffffffffffffffffffffffffffffffffff038211156119b0576119af611a89565b5b828201905092915050565b60006119c6826119eb565b9050919050565b60006119d8826119eb565b9050919050565b60008115159050919050565b600073ffffffffffffffffffffffffffffffffffffffff82169050919050565b6000819050919050565b82818337600083830152505050565b60005b83811015611a42578082015181840152602081019050611a27565b83811115611a51576000848401525b50505050565b60006002820490506001821680611a6f57607f821691505b60208210811415611a8357611a82611ab8565b5b50919050565b7f4e487b7100000000000000000000000000000000000000000000000000000000600052601160045260246000fd5b7f4e487b7100000000000000000000000000000000000000000000000000000000600052602260045260246000fd5b7f4e487b7100000000000000000000000000000000000000000000000000000000600052604160045260246000fd5b6000601f19601f8301169050919050565b611b30816119bb565b8114611b3b57600080fd5b50565b611b47816119df565b8114611b5257600080fd5b50565b611b5e81611a0b565b8114611b6957600080fd5b5056fea2646970667358221220b044cd09feef08c97a7b3bd45b03bc1dc9fa4c8045ec4d913b44cec5305c79d564736f6c63430008000033",
  "linkReferences": {},
  "deployedLinkReferences": {}
}